{
  "_format": "hh-sol-artifact-1",
  "contractName": "ClassReg",
  "sourceName": "contracts/ClassReg.sol",
  "abi": [
    {
      "inputs": [],
      "stateMutability": "nonpayable",
      "type": "constructor"
    },
    {
      "anonymous": false,
      "inputs": [
        {
          "indexed": false,
          "internalType": "uint256",
          "name": "studentId",
          "type": "uint256"
        },
        {
          "indexed": false,
          "internalType": "string",
          "name": "name",
          "type": "string"
        }
      ],
      "name": "StudentRegistered",
      "type": "event"
    },
    {
      "anonymous": false,
      "inputs": [
        {
          "indexed": false,
          "internalType": "uint256",
          "name": "studentId",
          "type": "uint256"
        }
      ],
      "name": "StudentRemoved",
      "type": "event"
    },
    {
      "inputs": [],
      "name": "admin",
      "outputs": [
        {
          "internalType": "address",
          "name": "",
          "type": "address"
        }
      ],
      "stateMutability": "view",
      "type": "function"
    },
    {
      "inputs": [],
      "name": "getAllStudents",
      "outputs": [
        {
          "internalType": "uint256[]",
          "name": "",
          "type": "uint256[]"
        },
        {
          "internalType": "string[]",
          "name": "",
          "type": "string[]"
        }
      ],
      "stateMutability": "view",
      "type": "function"
    },
    {
      "inputs": [
        {
          "internalType": "uint256",
          "name": "studentId",
          "type": "uint256"
        }
      ],
      "name": "getStudentById",
      "outputs": [
        {
          "internalType": "string",
          "name": "",
          "type": "string"
        }
      ],
      "stateMutability": "view",
      "type": "function"
    },
    {
      "inputs": [
        {
          "internalType": "uint256",
          "name": "studentId",
          "type": "uint256"
        },
        {
          "internalType": "string",
          "name": "name",
          "type": "string"
        }
      ],
      "name": "registerStudent",
      "outputs": [],
      "stateMutability": "nonpayable",
      "type": "function"
    },
    {
      "inputs": [
        {
          "internalType": "uint256",
          "name": "studentId",
          "type": "uint256"
        }
      ],
      "name": "removeStudent",
      "outputs": [],
      "stateMutability": "nonpayable",
      "type": "function"
    }
  ],
  "bytecode": "0x6080604052348015600f57600080fd5b50336000806101000a81548173ffffffffffffffffffffffffffffffffffffffff021916908373ffffffffffffffffffffffffffffffffffffffff1602179055506112ed8061005f6000396000f3fe608060405234801561001057600080fd5b50600436106100575760003560e01c80633f9586d41461005c5780636af8384514610078578063c8fb079314610094578063e9e30927146100c4578063f851a440146100e3575b600080fd5b610076600480360381019061007191906109cd565b610101565b005b610092600480360381019061008d9190610a29565b6102cd565b005b6100ae60048036038101906100a99190610a29565b6104fe565b6040516100bb9190610ad5565b60405180910390f35b6100cc61060b565b6040516100da929190610cc1565b60405180910390f35b6100eb6107bc565b6040516100f89190610d39565b60405180910390f35b60008054906101000a900473ffffffffffffffffffffffffffffffffffffffff1673ffffffffffffffffffffffffffffffffffffffff163373ffffffffffffffffffffffffffffffffffffffff161461018f576040517f08c379a000000000000000000000000000000000000000000000000000000000815260040161018690610dc6565b60405180910390fd5b6001600083815260200190815260200160002060020160009054906101000a900460ff16156101f3576040517f08c379a00000000000000000000000000000000000000000000000000000000081526004016101ea90610e32565b60405180910390fd5b60405180606001604052808381526020018281526020016001151581525060016000848152602001908152602001600020600082015181600001556020820151816001019081610243919061105e565b5060408201518160020160006101000a81548160ff02191690831515021790555090505060028290806001815401808255809150506001900390600052602060002001600090919091909150557f82972a188d7a560cf772804ac1cadfb42df2654ff1ded99159259c287ead263082826040516102c192919061113f565b60405180910390a15050565b60008054906101000a900473ffffffffffffffffffffffffffffffffffffffff1673ffffffffffffffffffffffffffffffffffffffff163373ffffffffffffffffffffffffffffffffffffffff161461035b576040517f08c379a000000000000000000000000000000000000000000000000000000000815260040161035290610dc6565b60405180910390fd5b806001600082815260200190815260200160002060020160009054906101000a900460ff166103bf576040517f08c379a00000000000000000000000000000000000000000000000000000000081526004016103b6906111bb565b60405180910390fd5b600160008381526020019081526020016000206000808201600090556001820160006103eb91906107e0565b6002820160006101000a81549060ff0219169055505060005b6002805490508110156104c2578260028281548110610426576104256111db565b5b9060005260206000200154036104b5576002600160028054905061044a9190611239565b8154811061045b5761045a6111db565b5b90600052602060002001546002828154811061047a576104796111db565b5b9060005260206000200181905550600280548061049a5761049961126d565b5b600190038181906000526020600020016000905590556104c2565b8080600101915050610404565b507f59341c48fd0b57ee9c153818be62372ef211cc499da6c2c6d5b8fe49721f36c5826040516104f2919061129c565b60405180910390a15050565b6060816001600082815260200190815260200160002060020160009054906101000a900460ff16610564576040517f08c379a000000000000000000000000000000000000000000000000000000000815260040161055b906111bb565b60405180910390fd5b60016000848152602001908152602001600020600101805461058590610e81565b80601f01602080910402602001604051908101604052809291908181526020018280546105b190610e81565b80156105fe5780601f106105d3576101008083540402835291602001916105fe565b820191906000526020600020905b8154815290600101906020018083116105e157829003601f168201915b5050505050915050919050565b606080600060028054905067ffffffffffffffff81111561062f5761062e6108a2565b5b60405190808252806020026020018201604052801561066257816020015b606081526020019060019003908161064d5790505b50905060005b60028054905081101561075d57600160006002838154811061068d5761068c6111db565b5b9060005260206000200154815260200190815260200160002060010180546106b490610e81565b80601f01602080910402602001604051908101604052809291908181526020018280546106e090610e81565b801561072d5780601f106107025761010080835404028352916020019161072d565b820191906000526020600020905b81548152906001019060200180831161071057829003601f168201915b5050505050828281518110610745576107446111db565b5b60200260200101819052508080600101915050610668565b50600281818054806020026020016040519081016040528092919081815260200182805480156107ac57602002820191906000526020600020905b815481526020019060010190808311610798575b5050505050915092509250509091565b60008054906101000a900473ffffffffffffffffffffffffffffffffffffffff1681565b5080546107ec90610e81565b6000825580601f106107fe575061081d565b601f01602090049060005260206000209081019061081c9190610820565b5b50565b5b80821115610839576000816000905550600101610821565b5090565b6000604051905090565b600080fd5b600080fd5b6000819050919050565b61086481610851565b811461086f57600080fd5b50565b6000813590506108818161085b565b92915050565b600080fd5b600080fd5b6000601f19601f8301169050919050565b7f4e487b7100000000000000000000000000000000000000000000000000000000600052604160045260246000fd5b6108da82610891565b810181811067ffffffffffffffff821117156108f9576108f86108a2565b5b80604052505050565b600061090c61083d565b905061091882826108d1565b919050565b600067ffffffffffffffff821115610938576109376108a2565b5b61094182610891565b9050602081019050919050565b82818337600083830152505050565b600061097061096b8461091d565b610902565b90508281526020810184848401111561098c5761098b61088c565b5b61099784828561094e565b509392505050565b600082601f8301126109b4576109b3610887565b5b81356109c484826020860161095d565b91505092915050565b600080604083850312156109e4576109e3610847565b5b60006109f285828601610872565b925050602083013567ffffffffffffffff811115610a1357610a1261084c565b5b610a1f8582860161099f565b9150509250929050565b600060208284031215610a3f57610a3e610847565b5b6000610a4d84828501610872565b91505092915050565b600081519050919050565b600082825260208201905092915050565b60005b83811015610a90578082015181840152602081019050610a75565b60008484015250505050565b6000610aa782610a56565b610ab18185610a61565b9350610ac1818560208601610a72565b610aca81610891565b840191505092915050565b60006020820190508181036000830152610aef8184610a9c565b905092915050565b600081519050919050565b600082825260208201905092915050565b6000819050602082019050919050565b610b2c81610851565b82525050565b6000610b3e8383610b23565b60208301905092915050565b6000602082019050919050565b6000610b6282610af7565b610b6c8185610b02565b9350610b7783610b13565b8060005b83811015610ba8578151610b8f8882610b32565b9750610b9a83610b4a565b925050600181019050610b7b565b5085935050505092915050565b600081519050919050565b600082825260208201905092915050565b6000819050602082019050919050565b600082825260208201905092915050565b6000610bfd82610a56565b610c078185610be1565b9350610c17818560208601610a72565b610c2081610891565b840191505092915050565b6000610c378383610bf2565b905092915050565b6000602082019050919050565b6000610c5782610bb5565b610c618185610bc0565b935083602082028501610c7385610bd1565b8060005b85811015610caf5784840389528151610c908582610c2b565b9450610c9b83610c3f565b925060208a01995050600181019050610c77565b50829750879550505050505092915050565b60006040820190508181036000830152610cdb8185610b57565b90508181036020830152610cef8184610c4c565b90509392505050565b600073ffffffffffffffffffffffffffffffffffffffff82169050919050565b6000610d2382610cf8565b9050919050565b610d3381610d18565b82525050565b6000602082019050610d4e6000830184610d2a565b92915050565b7f4f6e6c792061646d696e2063616e20706572666f726d2074686973206163746960008201527f6f6e000000000000000000000000000000000000000000000000000000000000602082015250565b6000610db0602283610a61565b9150610dbb82610d54565b604082019050919050565b60006020820190508181036000830152610ddf81610da3565b9050919050565b7f53747564656e7420616c72656164792072656769737465726564000000000000600082015250565b6000610e1c601a83610a61565b9150610e2782610de6565b602082019050919050565b60006020820190508181036000830152610e4b81610e0f565b9050919050565b7f4e487b7100000000000000000000000000000000000000000000000000000000600052602260045260246000fd5b60006002820490506001821680610e9957607f821691505b602082108103610eac57610eab610e52565b5b50919050565b60008190508160005260206000209050919050565b60006020601f8301049050919050565b600082821b905092915050565b600060088302610f147fffffffffffffffffffffffffffffffffffffffffffffffffffffffffffffffff82610ed7565b610f1e8683610ed7565b95508019841693508086168417925050509392505050565b6000819050919050565b6000610f5b610f56610f5184610851565b610f36565b610851565b9050919050565b6000819050919050565b610f7583610f40565b610f89610f8182610f62565b848454610ee4565b825550505050565b600090565b610f9e610f91565b610fa9818484610f6c565b505050565b5b81811015610fcd57610fc2600082610f96565b600181019050610faf565b5050565b601f82111561101257610fe381610eb2565b610fec84610ec7565b81016020851015610ffb578190505b61100f61100785610ec7565b830182610fae565b50505b505050565b600082821c905092915050565b600061103560001984600802611017565b1980831691505092915050565b600061104e8383611024565b9150826002028217905092915050565b61106782610a56565b67ffffffffffffffff8111156110805761107f6108a2565b5b61108a8254610e81565b611095828285610fd1565b600060209050601f8311600181146110c857600084156110b6578287015190505b6110c08582611042565b865550611128565b601f1984166110d686610eb2565b60005b828110156110fe578489015182556001820191506020850194506020810190506110d9565b8683101561111b5784890151611117601f891682611024565b8355505b6001600288020188555050505b505050505050565b61113981610851565b82525050565b60006040820190506111546000830185611130565b81810360208301526111668184610a9c565b90509392505050565b7f53747564656e74206e6f74207265676973746572656400000000000000000000600082015250565b60006111a5601683610a61565b91506111b08261116f565b602082019050919050565b600060208201905081810360008301526111d481611198565b9050919050565b7f4e487b7100000000000000000000000000000000000000000000000000000000600052603260045260246000fd5b7f4e487b7100000000000000000000000000000000000000000000000000000000600052601160045260246000fd5b600061124482610851565b915061124f83610851565b92508282039050818111156112675761126661120a565b5b92915050565b7f4e487b7100000000000000000000000000000000000000000000000000000000600052603160045260246000fd5b60006020820190506112b16000830184611130565b9291505056fea26469706673582212200cce38db20e46c63a425424fcbee88d414d2b069cd3868e1366a57269b10772864736f6c634300081c0033",
  "linkReferences": {},
  "deployedLinkReferences": {}
}